{
  "contractName": "RefundByLocation",
  "abi": [
    {
      "inputs": [
        {
          "internalType": "address",
          "name": "owner",
          "type": "address"
        },
        {
          "internalType": "uint256",
          "name": "officeLocationLat",
          "type": "uint256"
        },
        {
          "internalType": "uint256",
          "name": "officeLocationLong",
          "type": "uint256"
        },
        {
          "internalType": "uint256",
          "name": "radius",
          "type": "uint256"
        },
        {
          "internalType": "uint256",
          "name": "payPerHour",
          "type": "uint256"
        }
      ],
      "stateMutability": "payable",
      "type": "constructor",
      "payable": true
    },
    {
      "inputs": [
        {
          "internalType": "uint256",
          "name": "",
          "type": "uint256"
        }
      ],
      "name": "Employees",
      "outputs": [
        {
          "internalType": "address",
          "name": "",
          "type": "address"
        }
      ],
      "stateMutability": "view",
      "type": "function",
      "constant": true
    },
    {
      "inputs": [],
      "name": "LastLocationUpdateTimestamp",
      "outputs": [
        {
          "internalType": "int256",
          "name": "",
          "type": "int256"
        }
      ],
      "stateMutability": "view",
      "type": "function",
      "constant": true
    },
    {
      "inputs": [],
      "name": "OfficeLocation",
      "outputs": [
        {
          "internalType": "uint256",
          "name": "lat",
          "type": "uint256"
        },
        {
          "internalType": "uint256",
          "name": "long",
          "type": "uint256"
        }
      ],
      "stateMutability": "view",
      "type": "function",
      "constant": true
    },
    {
      "inputs": [],
      "name": "Owner",
      "outputs": [
        {
          "internalType": "address",
          "name": "",
          "type": "address"
        }
      ],
      "stateMutability": "view",
      "type": "function",
      "constant": true
    },
    {
      "inputs": [],
      "name": "PayPerHour",
      "outputs": [
        {
          "internalType": "uint256",
          "name": "",
          "type": "uint256"
        }
      ],
      "stateMutability": "view",
      "type": "function",
      "constant": true
    },
    {
      "inputs": [],
      "name": "Radius",
      "outputs": [
        {
          "internalType": "uint256",
          "name": "",
          "type": "uint256"
        }
      ],
      "stateMutability": "view",
      "type": "function",
      "constant": true
    },
    {
      "inputs": [],
      "name": "getEmployee",
      "outputs": [
        {
          "internalType": "address[]",
          "name": "",
          "type": "address[]"
        }
      ],
      "stateMutability": "view",
      "type": "function",
      "constant": true
    },
    {
      "inputs": [
        {
          "internalType": "address",
          "name": "employeeAddress",
          "type": "address"
        }
      ],
      "name": "addEmployee",
      "outputs": [],
      "stateMutability": "nonpayable",
      "type": "function"
    },
    {
      "inputs": [
        {
          "internalType": "address",
          "name": "userAddress",
          "type": "address"
        }
      ],
      "name": "isEmployee",
      "outputs": [
        {
          "internalType": "bool",
          "name": "",
          "type": "bool"
        }
      ],
      "stateMutability": "view",
      "type": "function",
      "constant": true
    },
    {
      "inputs": [
        {
          "internalType": "address",
          "name": "employeeAdd",
          "type": "address"
        },
        {
          "internalType": "uint256",
          "name": "timeStamp",
          "type": "uint256"
        }
      ],
      "name": "getEmployeeLocationInfo",
      "outputs": [],
      "stateMutability": "view",
      "type": "function",
      "constant": true
    },
    {
      "inputs": [
        {
          "internalType": "uint256",
          "name": "x",
          "type": "uint256"
        }
      ],
      "name": "sqrt",
      "outputs": [
        {
          "internalType": "uint256",
          "name": "y",
          "type": "uint256"
        }
      ],
      "stateMutability": "pure",
      "type": "function",
      "constant": true
    },
    {
      "inputs": [
        {
          "internalType": "uint256",
          "name": "employeeLocationCoordinateLat",
          "type": "uint256"
        },
        {
          "internalType": "uint256",
          "name": "employeeLocationCoordinateLong",
          "type": "uint256"
        },
        {
          "internalType": "uint256",
          "name": "timeStamp",
          "type": "uint256"
        }
      ],
      "name": "reportLocation",
      "outputs": [],
      "stateMutability": "payable",
      "type": "function",
      "payable": true
    }
  ],
  "bytecode": "0x60806040526040516200123a3803806200123a833981810160405281019062000029919062000155565b846000806101000a81548173ffffffffffffffffffffffffffffffffffffffff021916908373ffffffffffffffffffffffffffffffffffffffff1602179055506040518060400160405280858152602001848152506002600082015181600001556020820151816001015590505081600181905550806006819055505050505050620001dd565b600080fd5b600073ffffffffffffffffffffffffffffffffffffffff82169050919050565b6000620000e282620000b5565b9050919050565b620000f481620000d5565b81146200010057600080fd5b50565b6000815190506200011481620000e9565b92915050565b6000819050919050565b6200012f816200011a565b81146200013b57600080fd5b50565b6000815190506200014f8162000124565b92915050565b600080600080600060a08688031215620001745762000173620000b0565b5b6000620001848882890162000103565b955050602062000197888289016200013e565b9450506040620001aa888289016200013e565b9350506060620001bd888289016200013e565b9250506080620001d0888289016200013e565b9150509295509295909350565b61104d80620001ed6000396000f3fe6080604052600436106100a75760003560e01c8063b4a99a4e11610064578063b4a99a4e146101d2578063b9336313146101fd578063c61f93c714610219578063db53b28f14610245578063ea66543f1461026e578063f3cb8c31146102ab576100a7565b8063151c259f146100ac5780634132db8f146100e9578063677342ce1461011457806368b04268146101515780637b6af03a1461017c57806391de9d66146101a7575b600080fd5b3480156100b857600080fd5b506100d360048036038101906100ce91906108a7565b6102d4565b6040516100e09190610915565b60405180910390f35b3480156100f557600080fd5b506100fe610313565b60405161010b91906109ee565b60405180910390f35b34801561012057600080fd5b5061013b600480360381019061013691906108a7565b6103a1565b6040516101489190610a1f565b60405180910390f35b34801561015d57600080fd5b506101666103fe565b6040516101739190610a53565b60405180910390f35b34801561018857600080fd5b50610191610404565b60405161019e9190610a1f565b60405180910390f35b3480156101b357600080fd5b506101bc61040a565b6040516101c99190610a1f565b60405180910390f35b3480156101de57600080fd5b506101e7610410565b6040516101f49190610915565b60405180910390f35b61021760048036038101906102129190610a6e565b610434565b005b34801561022557600080fd5b5061022e610572565b60405161023c929190610ac1565b60405180910390f35b34801561025157600080fd5b5061026c60048036038101906102679190610b16565b610584565b005b34801561027a57600080fd5b5061029560048036038101906102909190610b56565b6105cc565b6040516102a29190610b9e565b60405180910390f35b3480156102b757600080fd5b506102d260048036038101906102cd9190610b56565b61067a565b005b600481815481106102e457600080fd5b906000526020600020016000915054906101000a900473ffffffffffffffffffffffffffffffffffffffff1681565b6060600480548060200260200160405190810160405280929190818152602001828054801561039757602002820191906000526020600020905b8160009054906101000a900473ffffffffffffffffffffffffffffffffffffffff1673ffffffffffffffffffffffffffffffffffffffff168152602001906001019080831161034d575b5050505050905090565b60008060026001846103b39190610be8565b6103bd9190610c6d565b90508291505b818110156103f85780915060028182856103dd9190610c6d565b6103e79190610be8565b6103f19190610c6d565b90506103c3565b50919050565b60055481565b60065481565b60015481565b60008054906101000a900473ffffffffffffffffffffffffffffffffffffffff1681565b61043d336105cc565b61047c576040517f08c379a000000000000000000000000000000000000000000000000000000000815260040161047390610cfb565b60405180910390fd5b6000600760003373ffffffffffffffffffffffffffffffffffffffff1673ffffffffffffffffffffffffffffffffffffffff1681526020019081526020016000209050604051806040016040528085815260200184815250816000016000848152602001908152602001600020600082015181600001556020820151816001015590505061051d60405180604001604052808681526020018581525061076e565b1561056c573373ffffffffffffffffffffffffffffffffffffffff166108fc6006549081150290604051600060405180830381858888f1935050505015801561056a573d6000803e3d6000fd5b505b50505050565b60028060000154908060010154905082565b6000600760008473ffffffffffffffffffffffffffffffffffffffff1673ffffffffffffffffffffffffffffffffffffffff1681526020019081526020016000209050505050565b600080600090505b60048054905081101561066f578273ffffffffffffffffffffffffffffffffffffffff166004828154811061060c5761060b610d1b565b5b9060005260206000200160009054906101000a900473ffffffffffffffffffffffffffffffffffffffff1673ffffffffffffffffffffffffffffffffffffffff160361065c576001915050610675565b808061066790610d4a565b9150506105d4565b50600090505b919050565b60008054906101000a900473ffffffffffffffffffffffffffffffffffffffff1673ffffffffffffffffffffffffffffffffffffffff163373ffffffffffffffffffffffffffffffffffffffff1614610708576040517f08c379a00000000000000000000000000000000000000000000000000000000081526004016106ff90610dde565b60405180910390fd5b6004819080600181540180825580915050600190039060005260206000200160009091909190916101000a81548173ffffffffffffffffffffffffffffffffffffffff021916908373ffffffffffffffffffffffffffffffffffffffff16021790555050565b60008060026000015483600001516107869190610dfe565b90506000600260010154846020015161079f9190610dfe565b9050600060b46118e3672b992ddfa23249d6856107bc9190610e32565b6107c69190610e32565b6107d09190610c6d565b9050600060b46118e3672b992ddfa23249d6856107ed9190610e32565b6107f79190610e32565b6108019190610c6d565b905060006108316002836108159190610fcc565b6002856108229190610fcc565b61082c9190610be8565b6103a1565b9050670de0b6b3a76400006001546108499190610e32565b811161085d57600195505050505050610867565b6000955050505050505b919050565b600080fd5b6000819050919050565b61088481610871565b811461088f57600080fd5b50565b6000813590506108a18161087b565b92915050565b6000602082840312156108bd576108bc61086c565b5b60006108cb84828501610892565b91505092915050565b600073ffffffffffffffffffffffffffffffffffffffff82169050919050565b60006108ff826108d4565b9050919050565b61090f816108f4565b82525050565b600060208201905061092a6000830184610906565b92915050565b600081519050919050565b600082825260208201905092915050565b6000819050602082019050919050565b610965816108f4565b82525050565b6000610977838361095c565b60208301905092915050565b6000602082019050919050565b600061099b82610930565b6109a5818561093b565b93506109b08361094c565b8060005b838110156109e15781516109c8888261096b565b97506109d383610983565b9250506001810190506109b4565b5085935050505092915050565b60006020820190508181036000830152610a088184610990565b905092915050565b610a1981610871565b82525050565b6000602082019050610a346000830184610a10565b92915050565b6000819050919050565b610a4d81610a3a565b82525050565b6000602082019050610a686000830184610a44565b92915050565b600080600060608486031215610a8757610a8661086c565b5b6000610a9586828701610892565b9350506020610aa686828701610892565b9250506040610ab786828701610892565b9150509250925092565b6000604082019050610ad66000830185610a10565b610ae36020830184610a10565b9392505050565b610af3816108f4565b8114610afe57600080fd5b50565b600081359050610b1081610aea565b92915050565b60008060408385031215610b2d57610b2c61086c565b5b6000610b3b85828601610b01565b9250506020610b4c85828601610892565b9150509250929050565b600060208284031215610b6c57610b6b61086c565b5b6000610b7a84828501610b01565b91505092915050565b60008115159050919050565b610b9881610b83565b82525050565b6000602082019050610bb36000830184610b8f565b92915050565b7f4e487b7100000000000000000000000000000000000000000000000000000000600052601160045260246000fd5b6000610bf382610871565b9150610bfe83610871565b9250827fffffffffffffffffffffffffffffffffffffffffffffffffffffffffffffffff03821115610c3357610c32610bb9565b5b828201905092915050565b7f4e487b7100000000000000000000000000000000000000000000000000000000600052601260045260246000fd5b6000610c7882610871565b9150610c8383610871565b925082610c9357610c92610c3e565b5b828204905092915050565b600082825260208201905092915050565b7f556e6b6e6f776e20656d706c6f79656500000000000000000000000000000000600082015250565b6000610ce5601083610c9e565b9150610cf082610caf565b602082019050919050565b60006020820190508181036000830152610d1481610cd8565b9050919050565b7f4e487b7100000000000000000000000000000000000000000000000000000000600052603260045260246000fd5b6000610d5582610871565b91507fffffffffffffffffffffffffffffffffffffffffffffffffffffffffffffffff8203610d8757610d86610bb9565b5b600182019050919050565b7f4d757374206265206f776e657200000000000000000000000000000000000000600082015250565b6000610dc8600d83610c9e565b9150610dd382610d92565b602082019050919050565b60006020820190508181036000830152610df781610dbb565b9050919050565b6000610e0982610871565b9150610e1483610871565b925082821015610e2757610e26610bb9565b5b828203905092915050565b6000610e3d82610871565b9150610e4883610871565b9250817fffffffffffffffffffffffffffffffffffffffffffffffffffffffffffffffff0483118215151615610e8157610e80610bb9565b5b828202905092915050565b60008160011c9050919050565b6000808291508390505b6001851115610ee357808604811115610ebf57610ebe610bb9565b5b6001851615610ece5780820291505b8081029050610edc85610e8c565b9450610ea3565b94509492505050565b600082610efc5760019050610fb8565b81610f0a5760009050610fb8565b8160018114610f205760028114610f2a57610f59565b6001915050610fb8565b60ff841115610f3c57610f3b610bb9565b5b8360020a915084821115610f5357610f52610bb9565b5b50610fb8565b5060208310610133831016604e8410600b8410161715610f8e5782820a905083811115610f8957610f88610bb9565b5b610fb8565b610f9b8484846001610e99565b92509050818404811115610fb257610fb1610bb9565b5b81810290505b9392505050565b600060ff82169050919050565b6000610fd782610871565b9150610fe283610fbf565b925061100f7fffffffffffffffffffffffffffffffffffffffffffffffffffffffffffffffff8484610eec565b90509291505056fea26469706673582212203b5cdb5c531dd35c937f914b864d086112f4eb4d34d6483a4bf271228d70543864736f6c634300080f0033",
  "immutableReferences": {},
  "source": "pragma solidity ^0.8.9;\n\ncontract RefundByLocation {\n\n    struct Coordinate {\n        uint256 lat;\n        uint256 long;\n    }\n\n    address public Owner;\n    uint256 public Radius;\n    Coordinate public OfficeLocation;\n    address[] public Employees;\n    int public LastLocationUpdateTimestamp;\n    uint public PayPerHour;\n\n    struct EmployeeLocationInfo {\n        mapping (uint256 => Coordinate) LocationAtTimeStamp;\n    }\n\n    mapping (address => EmployeeLocationInfo) EmployeeLocationInfos;\n\n\n    constructor(address owner,uint256 officeLocationLat, uint256 officeLocationLong ,uint256 radius, uint payPerHour) public payable {\n        Owner = owner;\n        OfficeLocation = Coordinate({lat: officeLocationLat, long: officeLocationLong });\n        Radius = radius;\n        PayPerHour = payPerHour;\n    }\n\n    function getEmployee() view public returns (address[] memory) {\n        return Employees;\n    }\n\n    function addEmployee(address employeeAddress) public {\n        require(msg.sender == Owner, \"Must be owner\");\n        Employees.push(employeeAddress);\n    }\n\n    function isEmployee(address userAddress) view public returns(bool) {\n        for (uint i = 0; i < Employees.length; i++) {\n            if (Employees[i] == userAddress) return true;\n        }\n        return false;\n    }\n\n    function getEmployeeLocationInfo(address employeeAdd, uint256 timeStamp) public view {\n\n        EmployeeLocationInfo storage employeeLocation = EmployeeLocationInfos[employeeAdd];\n\n        //        console.log(\"over here lat\", employeeLocation.LocationAtTimeStamp[timeStamp].lat);\n\n        //        console.log(\"over here long\", employeeLocation.LocationAtTimeStamp[timeStamp].long);\n\n        // return employeeLocation[timeStamp];\n    }\n\n    function sqrt(uint x) pure public returns (uint y) {\n        uint z = (x + 1) / 2;\n        y = x;\n        while (z < y) {\n            y = z;\n            z = (x / z + z) / 2;\n        }\n    }\n\n    // check if the location of the employee is in range\n    function isUserLocationInRange(Coordinate memory employeeLocation) view private returns(bool) {\n        uint lat = employeeLocation.lat - OfficeLocation.lat;\n        uint long = employeeLocation.long - OfficeLocation.long;\n\n        uint disLat = (lat * 3141592653589793238 * 6371) / 180;\n        uint disLong = (long * 3141592653589793238 * 6371) / 180;\n\n        uint distance = sqrt((disLat)**2 + (disLong)**2);\n        if (distance <= (Radius * 1000000000000000000)) {\n            return true;\n        }\n        return false;\n    }\n\n    // report the location of the employee\n    function reportLocation(uint256 employeeLocationCoordinateLat, uint256 employeeLocationCoordinateLong , uint256 timeStamp) payable public {\n        require(isEmployee(msg.sender), \"Unknown employee\");\n        EmployeeLocationInfo storage employeeLocationInfo = EmployeeLocationInfos[msg.sender];\n        employeeLocationInfo.LocationAtTimeStamp[timeStamp] = Coordinate({lat: employeeLocationCoordinateLat, long: employeeLocationCoordinateLong });\n\n        if (isUserLocationInRange(Coordinate({lat: employeeLocationCoordinateLat, long: employeeLocationCoordinateLong }))) {\n            payable(msg.sender).transfer(PayPerHour);\n        }\n    }\n}\n",
  "sourcePath": "/Users/diyemark/PycharmProjects/10Academy/Week-10/Refund-by-Location-Smart-Contract/refund-by-location/app/contracts/contracts/RefundByLocation.sol",
  "compiler": {
    "name": "solc",
    "version": "0.8.15+commit.e14f2714.Emscripten.clang"
  },
  "schemaVersion": "3.4.8",
  "updatedAt": "2022-07-17T22:42:03.869Z",
  "networkType": "ethereum",
  "devdoc": {
    "kind": "dev",
    "methods": {},
    "version": 1
  },
  "userdoc": {
    "kind": "user",
    "methods": {},
    "version": 1
  }
}