{
  "contractName": "Casino",
  "abi": [
    {
      "constant": true,
      "inputs": [],
      "name": "numberOfBets",
      "outputs": [
        {
          "name": "",
          "type": "uint256"
        }
      ],
      "payable": false,
      "stateMutability": "view",
      "type": "function"
    },
    {
      "constant": true,
      "inputs": [
        {
          "name": "",
          "type": "address"
        }
      ],
      "name": "playerInfo",
      "outputs": [
        {
          "name": "amountBet",
          "type": "uint256"
        },
        {
          "name": "numberSelected",
          "type": "uint256"
        }
      ],
      "payable": false,
      "stateMutability": "view",
      "type": "function"
    },
    {
      "constant": true,
      "inputs": [],
      "name": "owner",
      "outputs": [
        {
          "name": "",
          "type": "address"
        }
      ],
      "payable": false,
      "stateMutability": "view",
      "type": "function"
    },
    {
      "constant": true,
      "inputs": [],
      "name": "minimumBet",
      "outputs": [
        {
          "name": "",
          "type": "uint256"
        }
      ],
      "payable": false,
      "stateMutability": "view",
      "type": "function"
    },
    {
      "constant": true,
      "inputs": [],
      "name": "maxAmountOfBets",
      "outputs": [
        {
          "name": "",
          "type": "uint256"
        }
      ],
      "payable": false,
      "stateMutability": "view",
      "type": "function"
    },
    {
      "constant": true,
      "inputs": [
        {
          "name": "",
          "type": "uint256"
        }
      ],
      "name": "players",
      "outputs": [
        {
          "name": "",
          "type": "address"
        }
      ],
      "payable": false,
      "stateMutability": "view",
      "type": "function"
    },
    {
      "constant": true,
      "inputs": [],
      "name": "totalBet",
      "outputs": [
        {
          "name": "",
          "type": "uint256"
        }
      ],
      "payable": false,
      "stateMutability": "view",
      "type": "function"
    },
    {
      "inputs": [
        {
          "name": "_minimumBet",
          "type": "uint256"
        }
      ],
      "payable": false,
      "stateMutability": "nonpayable",
      "type": "constructor"
    },
    {
      "payable": true,
      "stateMutability": "payable",
      "type": "fallback"
    },
    {
      "constant": false,
      "inputs": [],
      "name": "kill",
      "outputs": [],
      "payable": false,
      "stateMutability": "nonpayable",
      "type": "function"
    },
    {
      "constant": true,
      "inputs": [
        {
          "name": "player",
          "type": "address"
        }
      ],
      "name": "checkPlayerExists",
      "outputs": [
        {
          "name": "",
          "type": "bool"
        }
      ],
      "payable": false,
      "stateMutability": "view",
      "type": "function"
    },
    {
      "constant": false,
      "inputs": [
        {
          "name": "numberSelected",
          "type": "uint256"
        }
      ],
      "name": "bet",
      "outputs": [],
      "payable": true,
      "stateMutability": "payable",
      "type": "function"
    },
    {
      "constant": false,
      "inputs": [],
      "name": "generateNumberWinner",
      "outputs": [],
      "payable": false,
      "stateMutability": "nonpayable",
      "type": "function"
    },
    {
      "constant": false,
      "inputs": [
        {
          "name": "numberWinner",
          "type": "uint256"
        }
      ],
      "name": "distributePrizes",
      "outputs": [],
      "payable": false,
      "stateMutability": "nonpayable",
      "type": "function"
    },
    {
      "constant": false,
      "inputs": [],
      "name": "resetData",
      "outputs": [],
      "payable": false,
      "stateMutability": "nonpayable",
      "type": "function"
    }
  ],
  "bytecode": "0x60606040526064600455341561001457600080fd5b604051602080610a6d83398101604052808051906020019091905050336000806101000a81548173ffffffffffffffffffffffffffffffffffffffff021916908373ffffffffffffffffffffffffffffffffffffffff16021790555060008114151561008257806001819055505b506109db806100926000396000f3006060604052600436106100c5576000357c0100000000000000000000000000000000000000000000000000000000900463ffffffff1680630a50e361146100c75780632ca8c6d3146100dc5780634081d9161461010557806341c0e1b514610156578063478c4e0e1461016b5780634b114691146101805780636ca3fc3b146101d45780637365870b146101f75780638da5cb5b1461020f578063c38a8afd14610264578063e08a96cd1461028d578063f71d96cb146102b6578063fe5e185314610319575b005b34156100d257600080fd5b6100da610342565b005b34156100e757600080fd5b6100ef610362565b6040518082815260200191505060405180910390f35b341561011057600080fd5b61013c600480803573ffffffffffffffffffffffffffffffffffffffff16906020019091905050610368565b604051808215151515815260200191505060405180910390f35b341561016157600080fd5b61016961040c565b005b341561017657600080fd5b61017e61049d565b005b341561018b57600080fd5b6101b7600480803573ffffffffffffffffffffffffffffffffffffffff169060200190919050506104bf565b604051808381526020018281526020019250505060405180910390f35b34156101df57600080fd5b6101f560048080359060200190919050506104e3565b005b61020d6004808035906020019091905050610724565b005b341561021a57600080fd5b61022261087d565b604051808273ffffffffffffffffffffffffffffffffffffffff1673ffffffffffffffffffffffffffffffffffffffff16815260200191505060405180910390f35b341561026f57600080fd5b6102776108a2565b6040518082815260200191505060405180910390f35b341561029857600080fd5b6102a06108a8565b6040518082815260200191505060405180910390f35b34156102c157600080fd5b6102d760048080359060200190919050506108ae565b604051808273ffffffffffffffffffffffffffffffffffffffff1673ffffffffffffffffffffffffffffffffffffffff16815260200191505060405180910390f35b341561032457600080fd5b61032c6108ed565b6040518082815260200191505060405180910390f35b60006001600a4381151561035257fe5b0601905061035f816104e3565b50565b60035481565b600080600090505b600580549050811015610401578273ffffffffffffffffffffffffffffffffffffffff166005828154811015156103a357fe5b906000526020600020900160009054906101000a900473ffffffffffffffffffffffffffffffffffffffff1673ffffffffffffffffffffffffffffffffffffffff1614156103f45760019150610406565b8080600101915050610370565b600091505b50919050565b6000809054906101000a900473ffffffffffffffffffffffffffffffffffffffff1673ffffffffffffffffffffffffffffffffffffffff163373ffffffffffffffffffffffffffffffffffffffff16141561049b576000809054906101000a900473ffffffffffffffffffffffffffffffffffffffff1673ffffffffffffffffffffffffffffffffffffffff16ff5b565b60006005816104ac91906108f3565b5060006002819055506000600381905550565b60066020528060005260406000206000915090508060000154908060010154905082565b6104eb61091f565b6000806000806000809450600093505b60058054905084101561063d5760058481548110151561051757fe5b906000526020600020900160009054906101000a900473ffffffffffffffffffffffffffffffffffffffff16925086600660008573ffffffffffffffffffffffffffffffffffffffff1673ffffffffffffffffffffffffffffffffffffffff1681526020019081526020016000206001015414156105de5782868660648110151561059e57fe5b602002019073ffffffffffffffffffffffffffffffffffffffff16908173ffffffffffffffffffffffffffffffffffffffff168152505084806001019550505b600660008473ffffffffffffffffffffffffffffffffffffffff1673ffffffffffffffffffffffffffffffffffffffff1681526020019081526020016000206000808201600090556001820160009055505083806001019450506104fb565b600060058161064c91906108f3565b50606460025481151561065b57fe5b049150600090505b8481101561071357600073ffffffffffffffffffffffffffffffffffffffff16868260648110151561069157fe5b602002015173ffffffffffffffffffffffffffffffffffffffff161415156107065785816064811015156106c157fe5b602002015173ffffffffffffffffffffffffffffffffffffffff166108fc839081150290604051600060405180830381858888f19350505050151561070557600080fd5b5b8080600101915050610663565b61071b61049d565b50505050505050565b61072d33610368565b15151561073957600080fd5b6001811015801561074b5750600a8111155b151561075657600080fd5b600154341015151561076757600080fd5b34600660003373ffffffffffffffffffffffffffffffffffffffff1673ffffffffffffffffffffffffffffffffffffffff1681526020019081526020016000206000018190555080600660003373ffffffffffffffffffffffffffffffffffffffff1673ffffffffffffffffffffffffffffffffffffffff168152602001908152602001600020600101819055506003600081548092919060010191905055506005805480600101828161081b919061095e565b9160005260206000209001600033909190916101000a81548173ffffffffffffffffffffffffffffffffffffffff021916908373ffffffffffffffffffffffffffffffffffffffff160217905550503460026000828254019250508190555050565b6000809054906101000a900473ffffffffffffffffffffffffffffffffffffffff1681565b60015481565b60045481565b6005818154811015156108bd57fe5b90600052602060002090016000915054906101000a900473ffffffffffffffffffffffffffffffffffffffff1681565b60025481565b81548183558181151161091a57818360005260206000209182019101610919919061098a565b5b505050565b610c80604051908101604052806064905b600073ffffffffffffffffffffffffffffffffffffffff168152602001906001900390816109305790505090565b81548183558181151161098557818360005260206000209182019101610984919061098a565b5b505050565b6109ac91905b808211156109a8576000816000905550600101610990565b5090565b905600a165627a7a72305820b8f68caac9c852706bdd8af051e8b557ee5bd40e824e756c11e565a00ac583910029",
  "source": "pragma solidity 0.4.20;\n\ncontract Casino {\n    address public owner;\n    uint256 public minimumBet;\n    uint256 public totalBet;\n    uint256 public numberOfBets;\n    uint256 public maxAmountOfBets = 100;\n    address[] public players;\n    struct Player {\n        uint256 amountBet;\n        uint256 numberSelected;\n    }\n    // The address of the player and => the user info\n    mapping(address => Player) public playerInfo;\n    function() public payable {}\n    function Casino(uint256 _minimumBet) public {\n        owner = msg.sender;\n        if(_minimumBet != 0 ) minimumBet = _minimumBet;\n    }\n    function kill() public {\n        if(msg.sender == owner) selfdestruct(owner);\n    }\n    function checkPlayerExists(address player) public constant returns(bool){\n        for(uint256 i = 0; i < players.length; i++){\n            if(players[i] == player) return true;\n        }\n        return false;\n    }\n    // To bet for a number between 1 and 10 both inclusive\n    function bet(uint256 numberSelected) public payable {\n        require(!checkPlayerExists(msg.sender));\n        require(numberSelected >= 1 && numberSelected <= 10);\n        require(msg.value >= minimumBet);\n        playerInfo[msg.sender].amountBet = msg.value;\n        playerInfo[msg.sender].numberSelected = numberSelected;\n        numberOfBets++;\n        players.push(msg.sender);\n        totalBet += msg.value;\n    }\n    // Generates a number between 1 and 10 that will be the winner\n    function generateNumberWinner() public {\n        uint256 numberGenerated = block.number % 10 + 1; // This isn't secure\n        distributePrizes(numberGenerated);\n    }\n    // Sends the corresponding ether to each winner depending on the total bets\n    function distributePrizes(uint256 numberWinner) public {\n        address[100] memory winners; // We have to create a temporary in memory array with fixed size\n        uint256 count = 0; // This is the count for the array of winners\n        for(uint256 i = 0; i < players.length; i++){\n            address playerAddress = players[i];\n            if(playerInfo[playerAddress].numberSelected == numberWinner){\n                winners[count] = playerAddress;\n                count++;\n            }\n            delete playerInfo[playerAddress]; // Delete all the players\n        }\n        players.length = 0; // Delete all the players array\n        uint256 winnerEtherAmount = totalBet / winners.length; // How much each winner gets\n        for(uint256 j = 0; j < count; j++){\n            if(winners[j] != address(0)) // Check that the address in this fixed array is not empty\n                winners[j].transfer(winnerEtherAmount);\n        }\n        resetData();\n    }\n\n    function resetData(){\n        players.length = 0; // Delete all the players array\n        totalBet = 0;\n        numberOfBets = 0;\n    }\n}",
  "sourcePath": "/Users/diyemark/PycharmProjects/10Academy/Week-10/Refund-by-Location-Smart-Contract/casino-ethereum/contracts/Casino.sol",
  "compiler": {
    "name": "solc",
    "version": "0.4.20+commit.3155dd80.Emscripten.clang"
  },
  "schemaVersion": "3.4.8",
  "updatedAt": "2022-07-14T22:49:15.674Z",
  "devdoc": {
    "methods": {}
  },
  "userdoc": {
    "methods": {}
  }
}